:020000040800F2
:100000000000022035190008D1180008D318000894
:10001000D5180008D7180008D918000800000000FB
:10002000000000000000000000000000DB180008D5
:10003000DD18000800000000DF180008E1180008C3
:100040008519000885190008851900088519000818
:100050008519000885190008851900088519000808
:1000600085190008851900088519000885190008F8
:1000700085190008851900088519000885190008E8
:1000800085190008851900088519000885190008D8
:1000900085190008851900088519000885190008C8
:1000A00085190008851900088519000885190008B8
:1000B00085190008851900088519000885190008A8
:1000C0008519000885190008851900088519000898
:1000D0008519000885190008851900088519000888
:1000E0008519000885190008851900088519000878
:1000F0008519000885190008851900088519000868
:100100008519000885190008851900088519000857
:100110008519000885190008851900088519000847
:100120008519000885190008851900088519000837
:100130008519000800000000000000008519000873
:100140008519000885190008851900088519000817
:100150008519000885190008851900088519000807
:1001600085190008851900088519000885190008F7
:10017000851900088519000885190008000000008D
:1001800000000000851900080000000000000000C9
:100190008519000800000000000000008519000813
:1001A00000000000000000000000000085190008A9
:1001B00085190008851900088519000885190008A7
:0401C0008519000895
:1001C40010B5054C237833B9044B13B10448AFF38D
:1001D40000800123237010BD0C00002000000000EB
:1001E400E019000808B5034B1BB103490348AFF3FA
:1001F400008008BD0000000010000020E019000885
:1002040053B94AB9002908BF00281CBF4FF0FF3179
:100214004FF0FF3000F072B9ADF1080C6DE904CE77
:1002240000F006F8DDF804E0DDE9022304B07047CD
:100234002DE9F047089E04468846002B4BD18A429C
:10024400154667D9B2FA82F24AB1C2F1200701FA1F
:1002540002F320FA07F7954047EA030894404FEA6F
:10026400154E230CB8FBFEF71FFA85FC0EFB17880E
:1002740043EA084307FB0CF1994209D9EB1807F14B
:10028400FF3080F01B81994240F21881023F2B44D9
:100294005B1AA4B2B3FBFEF00EFB103344EA034432
:1002A40000FB0CFCA44509D92C1900F1FF3380F0A4
:1002B4000781A44540F2048102382C4440EA0740F7
:1002C400A4EB0C0400271EB1D4400023C6E900436C
:1002D4003946BDE8F0878B4209D9002E00F0EB8047
:1002E4000027C6E9000138463946BDE8F087B3FA6D
:1002F40083F7002F47D18B4202D3824200F2FA8067
:10030400841A61EB030301209846002EE0D0C6E96D
:100314000048DDE702B9FFDEB2FA82F2002A40F0BB
:100324008F80491B4FEA154E1FFA85F80127B1FB50
:10033400FEFC230C0EFB1C1143EA014308FB0CF1E9
:10034400994207D9EB180CF1FF3002D2994200F21E
:10035400CD808446591AA3B2B1FBFEF00EFB1014F3
:1003640043EA044408FB00F8A04507D92C1900F11E
:10037400FF3302D2A04500F2B6801846A4EB08046D
:1003840040EA0C409FE7C7F1200CBB4022FA0CFE68
:100394004EEA030E01FA07F420FA0CF521FA0CF3E5
:1003A4004FEA1E482543B3FBF8F92C0C08FB19331C
:1003B4001FFA8EFA44EA034309FB0AF49C4202FA48
:1003C40007F200FA07F10BD91EEB030309F1FF3022
:1003D40080F087809C4240F28480A9F10209734432
:1003E4001B1BADB2B3FBF8F008FB103345EA034422
:1003F40000FB0AFAA24508D91EEB040400F1FF33FE
:100404006BD2A24569D90238744440EA0940A0FB82
:100414000289A4EB0A044C45C2464B4654D351D03E
:10042400002E69D0B1EB0A0564EB030404FA0CFC5A
:10043400FD40FC404CEA0505C6E90054002747E7A7
:10044400C2F1200320FA03F7954001FA02F021FAE1
:1004540003F34FEA154E3843010CB3FBFEF71FFAC2
:1004640085F80EFB173341EA034107FB08F38B427F
:1004740004FA02F407D9691807F1FF3C2FD28B4222
:100484002DD9023F2944CB1A81B2B3FBFEF00EFBF7
:10049400103341EA034100FB08F38B4207D9691882
:1004A40000F1FF3C17D28B4215D902382944C91AEE
:1004B40040EA07473BE73746304609E70746E7E6A1
:1004C4001846FBE64145ABD2B8EB020A69EB0E02D3
:1004D40001381346A4E76046E9E7184695E76746FE
:1004E400D1E781467CE702382C4447E7ACF1020CA3
:1004F4002B442FE7384608E73746E9E6704700BF44
:10050400034613F8012B002AFBD1181A013870474F
:1005140010B504460E4B18784FF47A73B3FBF0F31E
:100524000C4A1068B0FBF3F000F09CF868B90F2C8B
:1005340001D901200AE0002221464FF0FF3000F0EB
:100544005DF8034B5C60002000E0012010BD00BF9B
:10055400000000200800002008B50B4B1A6842F484
:1005640000721A601A6842F480621A601A6842F4CF
:1005740080721A60032000F02FF80020FFF7C8FFF4
:1005840001F010F9002008BD003C0240034A116844
:10059400034B1B780B441360704700BF28000020F6
:1005A40000000020014B1868704700BF280000209D
:1005B40038B50446FFF7F6FF0546B4F1FF3F02D015
:1005C400044B1B781C44FFF7EDFF401BA042FAD3F9
:1005D40038BD00BF00000020074AD36823F4E0635D
:1005E4001B041B0C000200F4E060184340F0BF60E1
:1005F40040F40030D060704700ED00E030B4174B99
:10060400DB68C3F30223C3F10704042C28BF0424CA
:100614001D1D062D18D9033B4FF0FF3505FA04F4D0
:1006240021EA0401994005FA03F322EA030319437A
:1006340000280BDB0901C9B200F1604000F56140FC
:1006440080F8001330BC70470023E5E700F00F008A
:100654000901C9B2024B1954F4E700BF00ED00E0F0
:1006640014ED00E00138B0F1807F0AD2064B5860E7
:10067400064AF02182F823100020986007221A60AD
:1006840070470120704700BF10E000E000ED00E07B
:1006940000230F2B00F2D180F0B482B039E006229F
:1006A40000E00022B2403A430234644E46F824206B
:1006B400634A1468EA4302EA04064F6817F4803F69
:1006C40001D045EA04065E4C2660646802EA04062A
:1006D4004F6817F4003F01D045EA0406584C6660A1
:1006E400A46802EA04064F6817F4801F01D045EAA3
:1006F4000406534CA660E46822404E6816F4001FBA
:1007040001D045EA04024E4CE26001330F2B00F2A3
:10071400918001229A400C6804EA0205AA42F4D1AD
:100724004C68022C01D0122C10D1DE08083650F887
:1007340026C003F00704A7000F24BC402CEA040CD5
:100744000C69BC4044EA0C0440F8264004685F008D
:100754000326BE40F64306EA040C4C6804F0030486
:10076400BC4044EA0C0404604C6804F1FF3CBCF156
:10077400010F03D9112C01D0122C10D1846806EA80
:10078400040CCC68BC4044EA0C048460446824EA49
:1007940002024C68C4F300149C4014434460C268D1
:1007A40016408A68BA403243C2604A6812F0805FD9
:1007B400ABD000220192234A546C44F48044546424
:1007C400526C02F480420192019A9C08A61C1B4AB6
:1007D40052F8267003F0030296000F22B24027EA73
:1007E4000207194A90423FF45CAF02F580629042DE
:1007F40016D002F58062904214D002F580629042D5
:1008040012D002F58062904210D002F580629042CC
:100814000ED002F5806290423FF441AF072241E7D7
:1008240001223FE702223DE703223BE7042239E7A6
:10083400052237E702B0F0BC70477047003801402A
:10084400003C0140003802400000024012B9090493
:100854008161704781617047002800F0BE80F8B55F
:10086400044690F83D30002B6BD0242384F83D30AF
:100874002268136823F00103136000F06FF96268C3
:10088400584B9A4262D8584B98428CBF002301239C
:10089400002B40F0A480554BA3FB00239B0C216844
:1008A4004A6822F03F021A434A6025682A6A22F005
:1008B4003F0266684B498E424ED8013313432B6284
:1008C4002568E96921F44F4121F0FF016368454A35
:1008D40093424BD801385B00B0FBF3F30133C3F30D
:1008E4000B03042B38BF04230B43EB6121680B6813
:1008F40023F0C003E269206A024313430B602168BA
:100904008B6823F4034323F0FF032269E068024366
:1009140013438B602168CB6823F0FF036269A069ED
:1009240002431343CB602268136843F0010313604E
:1009340000202064202384F83D30206384F83E00A6
:10094400F8BD80F83C3000F04DFF8EE7284B98420C
:100954008CBF002301239BE74FF4967101FB03F343
:100964002449A1FB03139B090133A7E7A268BAB981
:10097400461E03EB4307B6FBF7F60136C6F30B0638
:10098400B6FA86F6760936BBC2B9013803EB4303DF
:10099400B0FBF3F30133C3F30B0242F40043A3E7C8
:1009A400461E03EB830707EB8707B6FBF7F6013612
:1009B400C6F30B06B6FA86F67609E4E7013803EBCC
:1009C400830303EB8303B0FBF3F20132C2F30B02A4
:1009D40042F4404388E7012386E701207047012061
:1009E400AEE700BFA08601007F841E0083DE1B43A8
:1009F400FF083D00D34D6210002800F09D8070B5C3
:100A040004464F4B1B6803F00F038B4209D2CBB251
:100A14004B4A1370136803F00F038B4201D001207B
:100A240070BD236813F0020F17D013F0040F04D025
:100A3400444A936843F4E0539360236813F0080F27
:100A440004D0404A936843F4604393603D4A9368FA
:100A540023F0F003A068034393600D46236813F06A
:100A6400010F32D06368012B21D09A1E012A25D9A7
:100A7400344A126812F0020F60D032498A6822F0B8
:100A8400030213438B60FFF78DFD06462D4B9B68D5
:100A940003F00C036268B3EB820F16D0FFF782FDFC
:100AA400801B41F288339842F0D90320B8E7254AE5
:100AB400126812F4003FE0D10120B1E7214A126824
:100AC40012F0007FD9D10120AAE71D4B1B6803F067
:100AD4000F03AB4209D9EAB2194B1A701B6803F031
:100AE4000F03AB4201D001209AE7236813F0040FEF
:100AF40006D0144A936823F4E053E1680B439360EF
:100B0400236813F0080F07D00E4A936823F4604358
:100B1400216943EAC103936000F040F8094B9B68E4
:100B2400C3F30313084AD35CD840084B1860002071
:100B3400FFF7EEFC002073E70120704701206FE708
:100B4400003C024000380240F81900080800002068
:100B5400014B1868704700BF0800002008B5FFF774
:100B6400F7FF044B9B68C3F38223034AD35CD8404A
:100B740008BD00BF00380240081A000808B5FFF796
:100B8400E7FF044B9B68C3F34233034AD35CD8406A
:100B940008BD00BF00380240081A00082DE9F04BD8
:100BA4005C4B9B6803F00C03082B07D00C2B5BD029
:100BB400042B00F0AD805848BDE8F08B554B5A68C3
:100BC40002F03F025B6813F4800F2AD0514B5B683C
:100BD400C3F388131E4600275C010025E41A65EB65
:100BE4000705A90141EA9461A001001B61EB05011D
:100BF400CB0043EA5073C400A01943EB07014B0236
:100C040043EAD0534402204619460023FFF7F8FA7A
:100C1400404B5B68C3F3014301335B00B0FBF3F06B
:100C2400CAE73C4B5B68C3F388131E4600275C018C
:100C34000025E41A65EB0705A90141EA9461A001C6
:100C4400001B61EB0501CB0043EA5073C400A019FB
:100C540043EB07018B0243EA905384022046194672
:100C64000023FFF7CDFAD3E72A4B5A6802F03F027C
:100C74005B6813F4800F28D0264B5B68C3F388139A
:100C84001E4600275C010025E41A65EB0705A9014F
:100C940041EA9461A001001B61EB0501CB0043EA2A
:100CA4005073C400A01943EB07014B0243EAD0532D
:100CB4004402204619460023FFF7A2FA154B5B684D
:100CC400C3F30273B0FBF3F076E7124B5B68C3F334
:100CD40088131E4600275C010025E41A65EB07050E
:100CE400A90141EA9461A001001B61EB0501CB005D
:100CF40043EA5073C400A01943EB07018B0243EA93
:100D040090538402204619460023FFF779FAD5E769
:100D1400024851E7003802400024F40000127A002F
:100D240070B582B00446036813F0010F41D0A64B9E
:100D34009B6803F00C03042B32D0A34B9B6803F095
:100D44000C03082B27D0A04B9B6803F00C030C2B3F
:100D540059D06368B3F5803F5BD0B3F5A02F5ED064
:100D6400994B1A6822F480321A601A6822F480229D
:100D74001A606368002B5CD0FFF714FC0546924BA5
:100D84001B6813F4003F14D1FFF70CFC401B6428CC
:100D9400F5D903209DE18C4B5B6813F4800FD2D00E
:100DA400894B1B6813F4003F03D06368002B00F0E9
:100DB4008D81236813F0020F67D0834B9B6813F077
:100DC4000C0F4AD0804B9B6803F00C03082B3FD0D8
:100DD4007D4B9B6803F00C030C2B48D0E368002B7D
:100DE40074D07A4B01221A60FFF7DCFB0546764B80
:100DF4001B6813F0020F60D1FFF7D4FB401B0228DD
:100E0400F5D9032065E1704B5B6813F4800FA0D023
:100E1400C6E76D4A136843F480331360A9E76A4B4D
:100E24001A6842F480221A601A6842F480321A6006
:100E34009FE7FFF7B7FB0546634B1B6813F4003FBE
:100E4400B7D0FFF7AFFB401B6428F5D9032040E17E
:100E54005D4B5B6813F4800FBAD15B4B1B6813F0D6
:100E6400020F0AD0E368012B07D0012031E1564B71
:100E74005B6813F4800FB1D1EFE7534A136823F092
:100E8400F803216943EAC1031360236813F0080FD0
:100E940040D0636963B34E4B01221A60FFF782FBB3
:100EA4000546494B5B6F13F0020F33D1FFF77AFB12
:100EB400401B0228F5D903200BE1434A136823F0B1
:100EC400F803216943EAC1031360DEE73F4B0022C4
:100ED4001A60FFF767FB05463B4B1B6813F0020FD4
:100EE400D3D0FFF75FFB401B0228F5D90320F0E0C5
:100EF400374B00221A60FFF755FB0546324B5B6FF8
:100F040013F0020F06D0FFF74DFB401B0228F5D962
:100F14000320DEE0236813F0040F79D02A4B1B6C06
:100F240013F0805F33D100230193274B1A6C42F0F6
:100F340080521A641B6C03F080530193019B0125BA
:100F4400244B1B6813F4807F23D0A368012B34D077
:100F5400052B41D01C4B1A6F22F001021A671A6F3D
:100F640022F004021A67A368002B3FD0FFF71AFB94
:100F74000646154B1B6F13F0020F48D1FFF712FB07
:100F8400801B41F288339842F3D90320A1E0002565
:100F9400D6E7104A136843F480731360FFF702FB2B
:100FA40006460C4B1B6813F4807FCED1FFF7FAFA88
:100FB400801B0228F5D903208BE0034A136F43F00A
:100FC40001031367CFE700BF003802400000474227
:100FD400800E474200700040404B1A6F42F00402FA
:100FE4001A671A6F42F001021A67BCE7FFF7DAFAD0
:100FF40006463A4B1B6F13F0020F08D0FFF7D2FAE4
:10100400801B41F288339842F3D9032061E0E5B9AB
:10101400A369002B5CD0314A926802F00C02082AC2
:1010240059D0022B17D02E4B00221A60FFF7BAFAC0
:1010340004462A4B1B6813F0007F45D0FFF7B2FA31
:10104400001B0228F5D9032043E0244A136C23F043
:1010540080531364DCE7224B00221A60FFF7A2FAE4
:1010640005461E4B1B6813F0007F06D0FFF79AFA63
:10107400401B0228F5D903202BE0E369226A1343BD
:10108400626A43EA8213A26A5208013A43EA0243BB
:10109400E26A43EA0263226B43EA02730F4A536033
:1010A4000F4B01221A60FFF77DFA04460B4B1B68B5
:1010B40013F0007F06D1FFF775FA001B0228F5D95B
:1010C400032006E0002004E0002002E0012000E00C
:1010D400002002B070BD0120FBE700BF00380240D1
:1010E400600047422DE9F84304460268136923F47B
:1010F4004053C1680B431361836802691343426917
:101104001343C2691A430168CB6823F4164323F0DE
:101114000C031343CB600268536923F44073816961
:101124000B435361C369B3F5004F60D00368B84AF9
:10113400934200F0148102F58062934200F00F8123
:10114400FFF70CFD00EB800000EB80006568AD004C
:10115400B0FBF5F5AF4FA7FB05356D092E01FFF781
:10116400FDFC00EB800000EB80006568AD00B0FB87
:10117400F5F9FFF7F3FC00EB800000EB80006568F5
:10118400AD00B0FBF5F5A7FB05356D094FF064081C
:1011940008FB15952D013235A7FB05356D0905F0C2
:1011A400F0053544FFF7DAFC00EB800000EB80002B
:1011B4006668B600B0FBF6F6FFF7D0FC00EB8000E3
:1011C40000EB800063689B00B0FBF3F0A7FB0030EA
:1011D400400908FB10684FEA081808F13208A7FB19
:1011E4000837C7F3431723682F449F600DE1036852
:1011F400874A93425BD002F58062934257D0FFF74F
:10120400ADFC00EB800000EB800065686D00B0FB76
:10121400F5F5804FA7FB05356D092E01FFF79EFC00
:1012240000EB800000EB800065686D00B0FBF5F911
:10123400FFF794FC00EB800000EB800065686D0014
:10124400B0FBF5F5A7FB05356D094FF0640808FB05
:101254001595ED003235A7FB05356D096D0005F4D4
:10126400F8753544FFF77AFC00EB800000EB800052
:1012740066687600B0FBF6F6FFF770FC00EB8000C2
:1012840000EB800063685B00B0FBF3F3A7FB032370
:101294005B0908FB13684FEAC80808F13208A7FB8A
:1012A4000837C7F3421723682F449F60ADE0FFF768
:1012B40065FC00EB800000EB800065686D00B0FB0E
:1012C400F5F5544FA7FB05356D092E01FFF756FCC4
:1012D40000EB800000EB800065686D00B0FBF5F961
:1012E400FFF74CFC00EB800000EB800065686D00AC
:1012F400B0FBF5F5A7FB05356D094FF0640808FB55
:101304001595ED003235A7FB05356D096D0005F423
:10131400F8753544FFF732FC00EB800000EB8000E9
:1013240066687600B0FBF6F6FFF728FC00EB800059
:1013340000EB800063685B00B0FBF3F3A7FB0323BF
:101344005B0908FB13684FEAC80808F13208A7FBD9
:101354000837C7F3421723682F449F6055E0FFF70F
:101364000DFC00EB800000EB80006568AD00B0FB75
:10137400F5F5284FA7FB05356D092E01FFF7FEFB98
:1013840000EB800000EB80006568AD00B0FBF5F970
:10139400FFF7F4FB00EB800000EB80006568AD0014
:1013A400B0FBF5F5A7FB05356D094FF0640808FBA4
:1013B40015952D013235A7FB05356D0905F0F005AE
:1013C4003544FFF7DBFB00EB800000EB8000666830
:1013D400B600B0FBF6F6FFF7D1FB00EB800000EBA4
:1013E400800063689B00B0FBF3F0A7FB003040096A
:1013F40008FB10684FEA081808F13208A7FB083701
:10140400C7F3431723682F449F60BDE8F88300BFE8
:10141400001001401F85EB512DE9F04105460F46B0
:1014240016469846069C2B681B6837EA03030CBFD4
:1014340001230023B3421DD1B4F1FF3FF3D02CB1FB
:10144400FFF7B0F8A0EB0800A042ECD92A68D368F3
:1014540023F4D073D3602A68536923F001035361E2
:10146400202385F8393085F83A30002385F8383060
:10147400032000E00020BDE8F08158B310B5044615
:1014840090F839300BB3242384F839302268D368B8
:1014940023F40053D3602046FFF724FE2268136927
:1014A40023F4904313612268536923F02A035361A0
:1014B4002268D36843F40053D3600020E063202300
:1014C40084F8393084F83A3010BD80F8383000F0B0
:1014D400C3F9D8E7012070472DE9F04182B01E46D8
:1014E40090F83930DBB2202B55D104460D46904696
:1014F400002955D0002A55D090F83830012B53D00C
:10150400012380F838300023C363212380F8393065
:10151400FFF748F80746A4F82480A4F8268010E0D2
:1015240000963B46002280212046FFF775FF0028E5
:101534003CD12B882268C3F3080353602369C3B9E1
:101544000235E38C9BB2B3B1E38C013B9BB2E384E1
:10155400A368B3F5805FE3D000963B460022802168
:101564002046FFF759FF18BB2A7823685A600135D3
:10157400E7E70135E5E700963B4600224021204697
:10158400FFF74AFF0346A8B9202284F83920002235
:1015940084F8382000E00223184602B0BDE8F08148
:1015A4000123F9E70123F7E70223F5E70323F3E730
:1015B4000323F1E70323EFE730B58BB00024059450
:1015C40006940794089409940194224B1A6B42F0F0
:1015D40004021A631A6B02F004020192019A029443
:1015E4001A6B42F080021A631A6B02F080020292B4
:1015F400029A03941A6B42F001021A631A6B02F006
:1016040001020392039A04941A6B42F002021A63D1
:101614001B6B03F002030493049B0F4D224620210D
:101624002846FFF713F94FF4005305930B4B069329
:10163400079405A90A48FFF72BF8202305930123F3
:1016440006930794089405A92846FFF721F80BB0E0
:1016540030BD00BF003802400000024000002110ED
:101664000008024008B50948094B0360094B436070
:1016740000238360C3604FF480420261436183614D
:10168400C3610362FFF7E8F808BD00BF2C00002027
:1016940000540040A086010008B50848084B0360C8
:1016A4004FF4E133436000238360C36003610C2281
:1016B40042618361C361FFF7E0FE08BD8000002042
:1016C4000044004030B595B03422002107A800F052
:1016D4007DF90024029403940494059406940094E0
:1016E4001B4B1A6C42F080521A641B6C03F080533B
:1016F4000093009B0194174A136823F4404343F476
:1017040080431360136803F440430193019B022553
:10171400079501230A9310230B930D950E940F93B1
:101724004FF4A8731093042311931295139507A8EB
:10173400FFF7F6FA0F230293039504944FF48053B2
:1017440005930694294602A8FFF756F915B030BD53
:10175400003802400070004000B589B0FEF7FCFE7E
:10176400FFF7B0FFFFF728FFFFF77CFFFFF794FFB9
:101774000A4B6C460FCB07C424F8023B1B0C2370A6
:101784006846FEF7BDFE4FF0FF3382B26946044857
:10179400FFF7A2FE6420FEF70BFFE9E7101A00082A
:1017A4008000002000B583B0002100910C4B5A6CDE
:1017B40042F480425A645A6C02F480420092009AC5
:1017C40001911A6C42F080521A641B6C03F080532E
:1017D4000193019B0720FEF7FFFE03B05DF804FBB5
:1017E4000038024030B589B0002303930493059375
:1017F400069307930268154B9A4201D009B030BD95
:1018040000250195124C236B43F002032363236BE1
:1018140003F002030193019BC02303931223049357
:1018240001230593032306930423079303A909487B
:10183400FEF72EFF0295236C43F400132364236CFC
:1018440003F400130293029BD8E700BF0054004046
:10185400003802400004024000B589B0002303931D
:1018640004930593069307930268164B9A4202D099
:1018740009B05DF804FB0021019103F5FA331A6CF9
:1018840042F400321A641A6C02F400320192019A92
:1018940002911A6B42F001021A631B6B03F00103FD
:1018A4000293029B0C2303930223049301230593C5
:1018B400032306930723079303A90348FEF7E8FECF
:1018C400D6E700BF00440040000002407047FEE736
:1018D400FEE7FEE7FEE770477047704708B5FEF77E
:1018E40055FE08BD0F49D1F8883043F47003C1F8A0
:1018F40088300D4B1A6842F001021A60002098608B
:101904001A6822F0847222F480321A60074A5A60FC
:101914001A6822F480221A60D8604FF000638B604A
:10192400704700BF00ED00E0003802401030002492
:10193400DFF834D0002103E00C4B5B5843500431F2
:101944000B480C4B42189A42F6D30B4A02E0002390
:1019540042F8043B094B9A42F9D3FFF7C3FF00F066
:1019640011F8FFF7F9FE704700000220301A000852
:10197400000000200C0000200C000020C00000200B
:10198400FEE7000070B50D4E0D4CA41BA4100025FD
:10199400A54209D10B4E0C4C00F020F8A41BA41056
:1019A4000025A54205D170BD56F82530984701356C
:1019B400EEE756F8253098470135F2E7281A000873
:1019C400281A0008281A00082C1A000802440346A2
:1019D400934200D1704703F8011BF9E7F8B500BF43
:1019E400F8BC08BC9E467047F8B500BFF8BC08BCFC
:0419F4009E46704754
:1019F80000000000000000000102030406070809B7
:101A0800000000000102030453544D20434F525478
:081A1800455820210D0A0000D1
:081A200014E8FF7F0100000043
:041A2800E9010008C8
:041A2C00C5010008E8
:0C1A300001000000100000000024F40081
:0400000508001935A1
:00000001FF
